:020000040000FA
:0400000081EF00F09C
:100008002E011C011C011C0140001C0140001C01A8
:100018001C011C011C011C011C011C011C011C01F0
:100028001C014000400040001C011C011C011C0177
:100038001C011C011C012701E2001C011C011C0100
:100048001C011C011C011C01400040001C011C017A
:100058001C011C011C0140001C011C011C011C018D
:100068001C011C011C011C011C011C011C011C01A0
:100078001C011C011C011C0140001C011C011C016D
:100088001C011C011C011C011C011C011C011C0180
:100098001C011C011C011C0140001C014000400007
:1000A8001C011C011C011C011C011C011C011C0160
:1000B8001C011C011C011C011C011C011C011C0150
:1000C8001C011C011C011C011C011C011C011C0140
:1000D8001C011C011C011C011C011C011C011C0130
:1000E80040001C011C011C01400040004000400071
:1000F8001C011C011C011C01FF0003EF01F080839F
:1001080086898C8F9295989B9EA2A5A7AAADB0B31D
:10011800B6B9BCBEC1C4C6C9CBCED0D3D5D7DADC3C
:10012800DEE0E2E4E6E8EAEBEDEEF0F1F3F4F5F612
:10013800F8F9FAFAFBFCFDFDFEFEFEFFFFFFFFFFEC
:10014800FFFFFEFEFEFDFDFCFBFAFAF9F8F6F5F4FA
:10015800F3F1F0EEEDEBEAE8E6E4E2E0DEDCDAD734
:10016800D5D3D0CECBC9C6C4C1BEBCB9B6B3B0AD69
:10017800AAA7A5A29E9B9895928F8C898683807C3E
:10018800797673706D6A6764615D5A5855524F4C41
:10019800494643413E3B393634312F2C2A28252302
:1001A800211F1D1B1917151412110F0E0C0B0A090C
:1001B8000706050504030202010101000000000012
:1001C80000000101010202030405050607090A0BE4
:1001D8000C0E0F1112141517191B1D1F212325288A
:1001E8002A2C2F313436393B3E414346494C4F5235
:1001F80055585A5D6164676A6D707376797C060E2E
:10020800F66E010EF76E000EF86E01EE00F310EEBA
:1002180000F10900F5C4EEF4E550E150FAE1E250CE
:10022800F8E1DE0EF66E020EF76E000EF86E01EEC5
:1002380000F210EE54F00900F5C4EEF4E550E15078
:10024800FAE18A0EF66E020EF76E000EF86E01EEF7
:1002580060F110EE54F00900F5C4EEF4E550E150F9
:10026800FAE101EE01F1170EEE6AE806FDE104017C
:10027800080E5D6F000E5E6F000E5F6F0001FBEFF2
:1002880001F0D000A001A0017002D000D000D00081
:10029800A0017002D000A001A0017002D000D0001F
:1002A800D000A001A001D000D000D000D000D00024
:1002B800D000A001A0014003A001D000D00015018A
:1002C80015011501E004D0007002D0003801700259
:1002D800D00080068006220022002200220028008A
:1002E80028002800260026002800280028002800CA
:1002F8002D0032002D0000000000320032002800DE
:100308002D0032002D002D003C00000000003200BE
:10031800320028002D0032002D0032003500000088
:100328003200350032003200000003011E91800EB9
:100338001A5CD8A0A2EF01F0A4EF01F0A7EF01F03A
:100348007F0E1A6E1968191C1C6E1A1C1D6E1D5022
:10035800156E1CC514F5610054F41DF3610050F4CA
:100368001CF316901B50D8B4BCEF01F0BEEF01F09F
:0E037800BFEF01F01680B198A1881E8112001F
:10038800610054F41DF3610050F41CF3000E1324B3
:10039800D96EDA6A070EDA22DF5000017D6F040E8B
:1003A8001326B19816B0DBEF01F0DDEF01F0E0EFB6
:1003B80001F0A19803011E911100000E0D6E000EB0
:1003C8000E6E000E0F6E000E106E000E096E000EFF
:1003D8000A6E000E0B6E000E0C6E7D0E0301236F6D
:1003E800010E266FB196F00E246FA1861200178EAB
:1003F8005FEC02F027EC02F057EC02F0E1EC01F0C0
:1004080011EC02F0179E5EEC02F0BE9E45EC02F085
:10041800BE8E07EF02F081EF00F0C00EBE16900E00
:1004280003011A6F540E1B6F000E1F6F010E216F10
:10043800310E1E6F000E1A6E0F0E196E010E1B6E16
:1004480099EC01F01200000E0401006F000EC66E58
:10045800000E106F000EC86E000EC06EA00E0001D8
:100468007F6F000E7D6F1200610060F318F5010EBA
:100478000126000E022203220422610060F4D8F44F
:100488001100178C17BC4BEF02F04DEF02F046EF4E
:1004980002F01200B196179C010E0D26000E0E22D6
:0E04A8000F2210221100D68AD68ED68C12009A
:0804B800AE90110012001200C9
:020000040020DA
:10000000FF0FFF0FFF0FFF0FFF0FFF0FFF0FFF0F80
:10001000FF0FFF0FFF0FFF0FFF0FFF0FFF0FFF0F70
:020000040030CA
:0A0000008CFEFFFC9FFFFFFFFFFFD7
:00000001FF
