:020000040000FA
:0400000081EF00F09C
:10000800A8019601960196014000960140009601CC
:100018009601960196019601960196019601960120
:100028009601400040004000960196019601960115
:10003800960196019601A10160019601960196012B
:10004800960196019601960140004000960196019E
:100058009601960196014000960196019601960137
:1000680096019601960196019601960196019601D0
:100078009601960196019601400096019601960117
:1000880096019601960196019601960196019601B0
:1000980096019601960196014000960140004000A5
:1000A8009601960196019601960196019601960190
:1000B8009601960196019601960196019601960180
:1000C8009601960196019601960196019601960170
:1000D8009601960196019601960196019601960160
:1000E8004000960196019601400040004000400003
:1000F8009601960196019601FF00FFEF01F0000EB0
:10010800246E070E11181210D8B48DEF00F08FEF7F
:1001180000F0A3EF00F00D0E11181210D8B497EFED
:1001280000F099EF00F0A3EF00F00E0E1118121076
:10013800D8A4A1EF00F0A3EF00F0A5EF00F0010EA6
:10014800246E170E11181210D8B4ADEF00F0AFEFEF
:1001580000F0C3EF00F0210E11181210D8B4B7EF59
:1001680000F0B9EF00F0C3EF00F0220E11181210E2
:10017800D8A4C1EF00F0C3EF00F0C5EF00F0010E06
:10018800246ED8901134D96E1234DA6E600ED926E6
:10019800050EDA22610078F31EF5610074F31FF58D
:1001A800CE0E1E24206EFF0E1F20216E226A236AA7
:1001B8000550205C065021580750225808502358F3
:1001C800D8B0E9EF00F0EBEF00F0F3EF00F0240413
:1001D800D8A4F1EF00F0F3EF00F006EF01F0D890AB
:1001E8001134D96E1234DA6E000ED926060EDA22D0
:1001F800610078F319F5610074F31AF5010E1B6EAE
:1002080095EC02F0D8901134D96E1234DA6E600E83
:10021800D926050EDA22610078F31EF5610074F321
:100228001FF5CE0E1E24206EFF0E1F20216E226A9F
:10023800236A2050055C2150065822500758235045
:100248000858D8A02AEF01F02CEF01F03CEF01F09C
:100258002404D8B432EF01F034EF01F03CEF01F0A0
:10026800000E1A6E000E196E010E1B6E95EC02F050
:10027800D8901134D96E1234DA6E600ED926050E74
:10028800DA22610078F31EF5610074F31FF51E5041
:10029800206E1F50216E226A236A2050055C21506F
:1002A80006582250075823500858D8A05EEF01F08E
:1002B80060EF01F06AEF01F0114A122A000E056E94
:1002C800000E066E000E076E000E086E2A0E11183C
:1002D8001210D8A472EF01F074EF01F078EF01F07A
:1002E800000E126E000E116E010E0526000E06227B
:1002F800072208221200808386898C8F9295989B0A
:100308009EA2A5A7AAADB0B3B6B9BCBEC1C4C6C9A2
:10031800CBCED0D3D5D7DADCDEE0E2E4E6E8EAEB10
:10032800EDEEF0F1F3F4F5F6F8F9FAFAFBFCFDFD61
:10033800FEFEFEFFFFFFFFFFFFFFFEFEFEFDFDFCD2
:10034800FBFAFAF9F8F6F5F4F3F1F0EEEDEBEAE87A
:10035800E6E4E2E0DEDCDAD7D5D3D0CECBC9C6C43A
:10036800C1BEBCB9B6B3B0ADAAA7A5A29E9B9895CD
:10037800928F8C898683807C797673706D6A6764C6
:10038800615D5A5855524F4C494643413E3B3936B8
:1003980034312F2C2A282523211F1D1B191715142A
:1003A80012110F0E0C0B0A090706050504030202B9
:1003B8000101010000000000000001010102020328
:1003C8000405050607090A0B0C0E0F111214151760
:1003D800191B1D1F212325282A2C2F313436393B80
:1003E8003E414346494C4F5255585A5D6164676ACD
:1003F8006D707376797CFE0EF66E020EF76E000E47
:10040800F86E01EE00F310EE00F10900F5C4EEF409
:10041800E550E150FAE1E250F8E1D60EF66E040E2E
:10042800F76E000EF86E01EE00F210EE54F00900BF
:10043800F5C4EEF4E550E150FAE1820EF66E040ED2
:10044800F76E000EF86E01EE60F110EE54F0090040
:10045800F5C4EEF4E550E150FAE101EE01F1170EB2
:10046800EE6AE806FDE10401080E5D6F000E5E6F9E
:10047800000E5F6F0001F7EF02F0D000A001A001AD
:100488007002D000D000D000A0017002D000A001FE
:10049800A0017002D000D000D000A001A001D000BF
:1004A800D000D000D000D000D000A001A0014003AF
:1004B800A001D000D000150115011501E004D000FD
:1004C8007002D00038017002D00080068006220039
:1004D80022002200220028002800280026002600EA
:1004E80028002800280028002D0032002D000000D8
:1004F80000003200320028002D0032002D002D00AF
:100508003C00000000003200320028002D003200BC
:100518002D00320035000000320035003200320074
:10052800000003011E91800E1A5CD8A09EEF02F015
:10053800A0EF02F0A3EF02F07F0E1A6E1968191CE3
:100548001C6E1A1C1D6E1D50156E1CC514F561001D
:1005580054F41DF3610050F41CF316901B50D8B4EA
:10056800B8EF02F0BAEF02F0BBEF02F01680B198D4
:06057800A1881E811200A3
:10058000610054F41DF3610050F41CF3000E1324B9
:10059000D96EDA6A070EDA22DF5000017D6F040E91
:1005A0001326B19816B0D7EF02F0D9EF02F0DCEFC6
:1005B00002F0A19803011E911100000E0D6E000EB5
:1005C0000E6E000E0F6E000E106E000E096E000E05
:1005D0000A6E000E0B6E000E0C6E7D0E0301236F73
:1005E000010E266FB196F00E246FA1861200178EB1
:1005F00052EC03F00DEC03F04BEC03F0DDEC02F0F9
:100600001EEC03F0179E83EC00F0BE9E39EC03F065
:10061000BE8E03EF03F081EF00F0000E0401006FC7
:10062000000EC66E000E106F000EC86E000EC06E7B
:10063000A00E00017F6F000E7D6F1200C00EBE166F
:10064000900E03011A6F540E1B6F000E1F6F010EE8
:10065000216F310E1E6F1200610060F318F5010E5C
:100660000126000E022203220422610060F4D8F465
:100670001100178C17BC3FEF03F041EF03F03AEF86
:1006800003F01200B196179C010E0D26000E0E22EB
:0E0690000F2210221100D68AD68ED68C1200B0
:0606A000AE9011001200F3
:020000040020DA
:10000000FF0FFF0FFF0FFF0FFF0FFF0FFF0FFF0F80
:10001000FF0FFF0FFF0FFF0FFF0FFF0FFF0FFF0F70
:020000040030CA
:0A0000008CFEFFFC9FFFFFFFFFFFD7
:00000001FF
