:020000040000FA
:04000000FEEFFFF020
:020000040001F9
:10FE8400120012003F0C12331E0C000EBE6EB00E98
:10FE940003011A6F540E1B6F185119511200280ECA
:10FEA400C76E000E0401086F000ECF6E000EC66E02
:10FEB400000E006F000EBE6E1200000E096E000EE2
:10FEC4000A6E000E0B6E000E0C6E000E056E000E18
:10FED400066E000E076E000E086E1200880EF66E97
:10FEE400FE0EF76E010EF86E01EE1CF110EE06F038
:10FEF4000900F5C4EEF4E550E150FAE101EE01F138
:10FF0400130EEE6AE806FDE10001A3EFFFF0800E98
:10FF140003011A1B141C186E151C196E610060F481
:10FF240018F31950196FB1AE9AEFFFF09CEFFFF080
:10FF3400A0EFFFF0800EB11AA0EFFFF0800E1A1BA5
:10FF44001200048E42ECFFF05FECFFF051ECFFF086
:10FF540047ECFFF0C2ECFFF043ECFFF0030E156E2C
:10FF6400E80E146E89ECFFF07F0EB164BCEFFFF075
:10FF7400BEEFFFF0B6EFFFF0ACEFFFF0FEEFFFF0E7
:10FF840021EE1CF111EE14F1050EDBC4E3F4E806D6
:10FF9400FCE2114A122AF40E111806E11204D8A444
:10FFA400D6EFFFF0D8EFFFF0FDEFFFF0000E1B6E71
:10FFB4001B50BE101B6E140E0F24D96E050E10209C
:10FFC400DA6EDF501B1A61006CF4BEF40F4A102A7B
:10FFD400105009E1060E0F5CD8A0F3EFFFF0F5EF27
:10FFE400FFF0F9EFFFF0000E106E000E0F6E000E22
:0CFFF400126E000E116E120070EFFFF094
:020000040020DA
:10000000FF0FFF0FFF0FFF0FFF0FFF0FFF0FFF0F80
:10001000FF0FFF0FFF0FFF0FFF0FFF0FFF0FFF0F70
:020000040030CA
:0A0000008CFEFFFC9FFFFFFFFFFFD7
:00000001FF
