:020000040000FA
:04000000FEEFFFF020
:020000040001F9
:10FEFC00120012001200000EC66E000E0401006FFC
:10FF0C00800EBE6E120001EE01F10D0EEE6AE806D7
:10FF1C00FDE10001A3EFFFF0000E096E000E0A6E6A
:10FF2C00000E0B6E000E0C6E000E056E000E066EB3
:10FF3C00000E076E000E086E1200048E7EECFFF0B1
:10FF4C0092ECFFF081ECFFF080ECFFF0B4ECFFF0F2
:10FF5C007FECFFF0ACEFFFF0FEEFFFF0000E0E6E4B
:10FF6C00000E0F6E000E106E000E116E000E126E53
:10FF7C00000E136E000E146E000E156EEEEFFFF0F9
:10FF8C00BEC4BEF4BE2A010E0E26000E0F22102295
:10FF9C001122D7EFFFF0010E1226000E13221422AD
:10FFAC00152215500DE1E80E125C6E0E1358030E5F
:10FFBC001458D8A0E4EFFFF0E6EFFFF0D1EFFFF01C
:10FFCC00000E126E000E136E000E146E000E156EE7
:10FFDC00115010100F1009E13F0E0E5CD8A0F9EF74
:10FFEC00FFF0FBEFFFF0C6EFFFF03F0EBE1A120062
:04FFFC0089EFFFF09A
:020000040020DA
:10000000FF0FFF0FFF0FFF0FFF0FFF0FFF0FFF0F80
:10001000FF0FFF0FFF0FFF0FFF0FFF0FFF0FFF0F70
:020000040030CA
:0A0000008CFEFFFC9FFFFFFFFFFFD7
:00000001FF
