:020000040000FA
:04000000FEEFFFF020
:020000040001F9
:10FDFA0012001200B00E03011A6F540E1B6F185135
:10FE0A0019511200000E0D24D96EDA6A060EDA2292
:10FE1A00DF5000017D6F040E0D261200000EC66E23
:10FE2A00000E0401006F010EC76E000E086F000E6F
:10FE3A00CF6EA00E00017F6F1200000E096E000E39
:10FE4A000A6E000E0B6E000E0C6E000E056E000E92
:10FE5A00066E000E076E000E086E1200800E030179
:10FE6A001A1B0F1C116E101C126E610044F418F359
:10FE7A001250196F800EB11A800E1A1B1200FC0E56
:10FE8A00F66EFE0EF76E010EF86E01EE00F210EE3F
:10FE9A0000F10900F5C4EEF4E550E150FAE1E25050
:10FEAA00F8E101EE01F10E0EEE6AE806FDE100014D
:10FEBA005FEFFFF0048EFDECFEF022ECFFF013EC96
:10FECA00FFF0FFECFEF007ECFFF0000E106E0B0ED9
:10FEDA000F6E33ECFFF07F0EB16476EFFFF078EF30
:10FEEA00FFF070EFFFF0FEECFEF068EFFFF0FEEFC0
:10FEFA00FFF0808386898C8F9295989B9EA2A5A7F6
:10FF0A00AAADB0B3B6B9BCBEC1C4C6C9CBCED0D3F4
:10FF1A00D5D7DADCDEE0E2E4E6E8EAEBEDEEF0F192
:10FF2A00F3F4F5F6F8F9FAFAFBFCFDFDFEFEFEFF26
:10FF3A00FFFFFFFFFFFFFEFEFEFDFDFCFBFAFAF9E5
:10FF4A00F8F6F5F4F3F1F0EEEDEBEAE8E6E4E2E0D8
:10FF5A00DEDCDAD7D5D3D0CECBC9C6C4C1BEBCB9D4
:10FF6A00B6B3B0ADAAA7A5A29E9B9895928F8C898D
:10FF7A008683807C797673706D6A6764615D5A588E
:10FF8A0055524F4C494643413E3B393634312F2C6A
:10FF9A002A282523211F1D1B1917151412110F0EAC
:10FFAA000C0B0A09070605050403020201010100F8
:10FFBA000000000000000101010202030405050619
:10FFCA0007090A0B0C0E0F1112141517191B1D1F06
:10FFDA00212325282A2C2F313436393B3E414346EA
:10FFEA00494C4F5255585A5D6164676A6D70737611
:06FFFA00797C44EFFFF0EA
:020000040020DA
:10000000FF0FFF0FFF0FFF0FFF0FFF0FFF0FFF0F80
:10001000FF0FFF0FFF0FFF0FFF0FFF0FFF0FFF0F70
:020000040030CA
:0A0000008CFEFFFC9FFFFFFFFFFFD7
:00000001FF
