:020000040000FA
:04000000FEEFFFF020
:020000040001F9
:10FE4C0012001200120011000000380EC76E000ED6
:10FE5C000401086F000ECF6E000EC66E000E006F10
:10FE6C00800EBE6E1200000E0D6E000E0E6E000E99
:10FE7C000F6E000E106E000E096E000E0A6E000E54
:10FE8C000B6E000E0C6E1200088E26ECFFF039EC97
:10FE9C00FFF02BECFFF028ECFFF074ECFFF027ECFC
:10FEAC00FFF053EFFFF0FEEFFFF0520EF66EFE0E7A
:10FEBC00F76E010EF86E01EE12F110EE04F009006F
:10FECC00F5C4EEF4E550E150FAE101EE01F1110E4A
:10FEDC00EE6AE806FDE100014AEFFFF0CFAA79EFE8
:10FEEC00FFF07BEFFFF098EFFFF012A080EFFFF038
:10FEFC0082EFFFF098EFFFF0010E0126000E0222B8
:10FF0C00032204221206000E135A145A155A060E16
:10FF1C00176E520E166EC40EE82EFED7162EFCD798
:10FF2C00172EFAD7CFBA9DEFFFF09FEFFFF0B7EF88
:10FF3C00FFF012B0A4EFFFF0A6EFFFF0B7EFFFF069
:10FF4C00010E1226000E132214221522060E176E15
:10FF5C00520E166EC40EE82EFED7162EFCD7172E98
:10FF6C00FAD7CFA6BCEFFFF0BEEFFFF0DBEFFFF050
:10FF7C0012A8C3EFFFF0C5EFFFF0DBEFFFF00106B7
:10FF8C00000E025A035A045A100E125E000E135A37
:10FF9C00145A155A060E176E520E166EC40EE82E13
:10FFAC00FED7162EFCD7172EFAD7CFB6E0EFFFF000
:10FFBC00E2EFFFF0FAEFFFF012B8E7EFFFF0E9EF36
:10FFCC00FFF0FAEFFFF0100E1226000E132214228F
:10FFDC001522060E176E520E166EC40EE82EFED7A4
:10FFEC00162EFCD7172EFAD701508009BE6E1200C0
:04FFFC005BEFFFF0C8
:020000040020DA
:10000000FF0FFF0FFF0FFF0FFF0FFF0FFF0FFF0F80
:10001000FF0FFF0FFF0FFF0FFF0FFF0FFF0FFF0F70
:020000040030CA
:0A0000008CFEFFFC9FFFFFFFFFFFD7
:00000001FF
